{
  "_format": "hh-sol-artifact-1",
  "contractName": "ZydeV1",
  "sourceName": "contracts/ZydeV1.sol",
  "abi": [
    {
      "inputs": [
        {
          "internalType": "address",
          "name": "_usdcToken",
          "type": "address"
        },
        {
          "internalType": "address payable",
          "name": "_multisigAccount",
          "type": "address"
        },
        {
          "internalType": "address",
          "name": "_trustedForwarder",
          "type": "address"
        }
      ],
      "stateMutability": "nonpayable",
      "type": "constructor"
    },
    {
      "inputs": [
        {
          "internalType": "uint256",
          "name": "amount",
          "type": "uint256"
        }
      ],
      "name": "InvalidAmount",
      "type": "error"
    },
    {
      "anonymous": false,
      "inputs": [
        {
          "indexed": true,
          "internalType": "address",
          "name": "from",
          "type": "address"
        },
        {
          "indexed": true,
          "internalType": "address",
          "name": "to",
          "type": "address"
        },
        {
          "indexed": false,
          "internalType": "uint256",
          "name": "amount",
          "type": "uint256"
        },
        {
          "indexed": false,
          "internalType": "uint256",
          "name": "fee",
          "type": "uint256"
        },
        {
          "indexed": false,
          "internalType": "uint256",
          "name": "timeStamp",
          "type": "uint256"
        }
      ],
      "name": "Transfer",
      "type": "event"
    },
    {
      "anonymous": false,
      "inputs": [
        {
          "indexed": true,
          "internalType": "address",
          "name": "newAccount",
          "type": "address"
        },
        {
          "indexed": false,
          "internalType": "uint256",
          "name": "timeStamp",
          "type": "uint256"
        }
      ],
      "name": "UpdateMultiSigAccount",
      "type": "event"
    },
    {
      "anonymous": false,
      "inputs": [
        {
          "indexed": false,
          "internalType": "uint256",
          "name": "newFee",
          "type": "uint256"
        },
        {
          "indexed": false,
          "internalType": "uint256",
          "name": "timeStamp",
          "type": "uint256"
        }
      ],
      "name": "UpdatePlatformFee",
      "type": "event"
    },
    {
      "anonymous": false,
      "inputs": [
        {
          "indexed": true,
          "internalType": "address",
          "name": "newAccount",
          "type": "address"
        },
        {
          "indexed": false,
          "internalType": "uint256",
          "name": "timeStamp",
          "type": "uint256"
        }
      ],
      "name": "updateTrustedForwarderLog",
      "type": "event"
    },
    {
      "inputs": [],
      "name": "USDCToken",
      "outputs": [
        {
          "internalType": "contract IERC20",
          "name": "",
          "type": "address"
        }
      ],
      "stateMutability": "view",
      "type": "function"
    },
    {
      "inputs": [
        {
          "internalType": "address",
          "name": "_address",
          "type": "address"
        }
      ],
      "name": "addToWhitelist",
      "outputs": [],
      "stateMutability": "nonpayable",
      "type": "function"
    },
    {
      "inputs": [
        {
          "internalType": "address",
          "name": "aggregator",
          "type": "address"
        }
      ],
      "name": "getLatestPriceFeed",
      "outputs": [
        {
          "internalType": "int256",
          "name": "",
          "type": "int256"
        }
      ],
      "stateMutability": "view",
      "type": "function"
    },
    {
      "inputs": [],
      "name": "getOwnerBalance",
      "outputs": [
        {
          "internalType": "uint256",
          "name": "",
          "type": "uint256"
        }
      ],
      "stateMutability": "view",
      "type": "function"
    },
    {
      "inputs": [],
      "name": "getOwnerUSDCBalance",
      "outputs": [
        {
          "internalType": "uint256",
          "name": "",
          "type": "uint256"
        }
      ],
      "stateMutability": "view",
      "type": "function"
    },
    {
      "inputs": [],
      "name": "getSmartContractNativeBalance",
      "outputs": [
        {
          "internalType": "uint256",
          "name": "",
          "type": "uint256"
        }
      ],
      "stateMutability": "view",
      "type": "function"
    },
    {
      "inputs": [],
      "name": "getSmartContractUSDCBalance",
      "outputs": [
        {
          "internalType": "uint256",
          "name": "",
          "type": "uint256"
        }
      ],
      "stateMutability": "view",
      "type": "function"
    },
    {
      "inputs": [],
      "name": "getUserNativeTokenBalance",
      "outputs": [
        {
          "internalType": "uint256",
          "name": "",
          "type": "uint256"
        }
      ],
      "stateMutability": "view",
      "type": "function"
    },
    {
      "inputs": [],
      "name": "getUserUSDCBalance",
      "outputs": [
        {
          "internalType": "uint256",
          "name": "",
          "type": "uint256"
        }
      ],
      "stateMutability": "view",
      "type": "function"
    },
    {
      "inputs": [
        {
          "internalType": "uint256",
          "name": "maxFee",
          "type": "uint256"
        }
      ],
      "name": "incrementFeeCapped",
      "outputs": [],
      "stateMutability": "nonpayable",
      "type": "function"
    },
    {
      "inputs": [
        {
          "internalType": "address",
          "name": "_address",
          "type": "address"
        }
      ],
      "name": "isWhitelisted",
      "outputs": [
        {
          "internalType": "bool",
          "name": "",
          "type": "bool"
        }
      ],
      "stateMutability": "view",
      "type": "function"
    },
    {
      "inputs": [],
      "name": "owner",
      "outputs": [
        {
          "internalType": "address",
          "name": "",
          "type": "address"
        }
      ],
      "stateMutability": "view",
      "type": "function"
    },
    {
      "inputs": [],
      "name": "platformFee",
      "outputs": [
        {
          "internalType": "uint256",
          "name": "",
          "type": "uint256"
        }
      ],
      "stateMutability": "view",
      "type": "function"
    },
    {
      "inputs": [
        {
          "internalType": "address",
          "name": "_address",
          "type": "address"
        }
      ],
      "name": "removeFromWhitelist",
      "outputs": [],
      "stateMutability": "nonpayable",
      "type": "function"
    },
    {
      "inputs": [
        {
          "internalType": "address payable",
          "name": "_to",
          "type": "address"
        }
      ],
      "name": "transfer",
      "outputs": [],
      "stateMutability": "payable",
      "type": "function"
    },
    {
      "inputs": [
        {
          "internalType": "address payable",
          "name": "_to",
          "type": "address"
        }
      ],
      "name": "transferToSmartAccount",
      "outputs": [],
      "stateMutability": "payable",
      "type": "function"
    },
    {
      "inputs": [
        {
          "internalType": "address payable",
          "name": "_recipient",
          "type": "address"
        },
        {
          "internalType": "uint256",
          "name": "_amount",
          "type": "uint256"
        }
      ],
      "name": "transferUSDC",
      "outputs": [
        {
          "internalType": "bool",
          "name": "",
          "type": "bool"
        }
      ],
      "stateMutability": "nonpayable",
      "type": "function"
    },
    {
      "inputs": [
        {
          "internalType": "address payable",
          "name": "_recipient",
          "type": "address"
        },
        {
          "internalType": "uint256",
          "name": "_amount",
          "type": "uint256"
        }
      ],
      "name": "transferUSDCToSmartAccount",
      "outputs": [
        {
          "internalType": "bool",
          "name": "",
          "type": "bool"
        }
      ],
      "stateMutability": "nonpayable",
      "type": "function"
    },
    {
      "inputs": [],
      "name": "trustedForwarder",
      "outputs": [
        {
          "internalType": "address",
          "name": "",
          "type": "address"
        }
      ],
      "stateMutability": "view",
      "type": "function"
    },
    {
      "inputs": [
        {
          "internalType": "address payable",
          "name": "newAddress",
          "type": "address"
        }
      ],
      "name": "updateMultiSigAccount",
      "outputs": [],
      "stateMutability": "nonpayable",
      "type": "function"
    },
    {
      "inputs": [
        {
          "internalType": "uint256",
          "name": "_newFeePercentage",
          "type": "uint256"
        }
      ],
      "name": "updatePlatformFee",
      "outputs": [],
      "stateMutability": "nonpayable",
      "type": "function"
    },
    {
      "inputs": [
        {
          "internalType": "address",
          "name": "_trustedForwarder",
          "type": "address"
        }
      ],
      "name": "updateTrustedForwarder",
      "outputs": [],
      "stateMutability": "nonpayable",
      "type": "function"
    },
    {
      "inputs": [
        {
          "internalType": "uint256",
          "name": "",
          "type": "uint256"
        }
      ],
      "name": "whitelist",
      "outputs": [
        {
          "internalType": "address",
          "name": "",
          "type": "address"
        }
      ],
      "stateMutability": "view",
      "type": "function"
    }
  ],
  "bytecode": "0x60806040523480156200001157600080fd5b506040516200206d3803806200206d8339810160408190526200003491620001d7565b6001600081815581805560038054928301815590527fc2575a0e9e593c00f959f8c92f12db2869c3395a3b0502d05e2516446f71f85b0180546001600160a01b03199081166001600160a01b03868116918217909355600480548316868516179055600280548316909117905560058054909116918316919091179055620000bb620000e5565b600680546001600160a01b0319166001600160a01b0392909216919091179055506200022b915050565b6000620000f23362000109565b620000fc57503390565b5060131936013560601c90565b60004661014414806200011d575046610118145b1562000171576001600160a01b0382167322dcc39b2ac376862183dd35a1664798dafc7da614806200016b57506001600160a01b03821673ba4082f4961c8fb76231995c967cd9aa40f321b5145b92915050565b6001600160a01b03821673b539068872230f20456cf38ec52ef2f91af4ae4914806200016b57506001600160a01b038216738598806401a63ddf52473f1b3c55bc9e33e2d73b1492915050565b6001600160a01b0381168114620001d457600080fd5b50565b600080600060608486031215620001ed57600080fd5b8351620001fa81620001be565b60208501519093506200020d81620001be565b60408501519092506200022081620001be565b809150509250925092565b611e32806200023b6000396000f3fe6080604052600436106101405760003560e01c80637ebd1b30116100b6578063ca2aec941161006f578063ca2aec941461035d578063cd9c723d14610372578063e16ff85314610387578063e43252d71461039c578063f7aaaf3f146103bc578063f90b0311146103dc57600080fd5b80637ebd1b30146102aa57806389df6b90146102ca5780638ab1d681146102dd5780638da5cb5b146102fd578063aa0b59881461031d578063b31da8581461033d57600080fd5b8063590791f211610108578063590791f2146102005780635fcc698714610215578063643f6b401461022a5780636b7af5091461024a5780636eb9f5371461026a5780637da0a8771461028a57600080fd5b80631a6952301461014557806326232a2e1461015a578063290ff656146101835780633af32abf146101985780634c34c8de146101c8575b600080fd5b610158610153366004611abe565b6103fc565b005b34801561016657600080fd5b5061017060015481565b6040519081526020015b60405180910390f35b34801561018f57600080fd5b50610170610686565b3480156101a457600080fd5b506101b86101b3366004611abe565b61069f565b604051901515815260200161017a565b3480156101d457600080fd5b506002546101e8906001600160a01b031681565b6040516001600160a01b03909116815260200161017a565b34801561020c57600080fd5b50610170610708565b34801561022157600080fd5b50610170610756565b34801561023657600080fd5b50610158610245366004611abe565b6107e0565b34801561025657600080fd5b506101b8610265366004611ae2565b61086f565b34801561027657600080fd5b50610158610285366004611b0e565b610b07565b34801561029657600080fd5b506005546101e8906001600160a01b031681565b3480156102b657600080fd5b506101e86102c5366004611b0e565b610b35565b6101586102d8366004611abe565b610b5f565b3480156102e957600080fd5b506101586102f8366004611abe565b610cda565b34801561030957600080fd5b506006546101e8906001600160a01b031681565b34801561032957600080fd5b50610158610338366004611b0e565b610e1f565b34801561034957600080fd5b50610170610358366004611abe565b610ee3565b34801561036957600080fd5b50610170610f5a565b34801561037e57600080fd5b50610170610f93565b34801561039357600080fd5b50610170611000565b3480156103a857600080fd5b506101586103b7366004611abe565b611042565b3480156103c857600080fd5b506101b86103d7366004611ae2565b6110ce565b3480156103e857600080fd5b506101586103f7366004611abe565b61140e565b610404611496565b61040d336114ef565b6104325760405162461bcd60e51b815260040161042990611b27565b60405180910390fd5b600034116104525760405162461bcd60e51b815260040161042990611b57565b61045a61159f565b60006103e86001543461046d9190611bbc565b6104779190611bd3565b905060006104858234611bf5565b9050806104906115cd565b6001600160a01b03163110156104b85760405162461bcd60e51b815260040161042990611c08565b6004546040516000916001600160a01b03169084908381818185875af1925050503d8060008114610505576040519150601f19603f3d011682016040523d82523d6000602084013e61050a565b606091505b505090508061056f5760405162461bcd60e51b815260206004820152602b60248201527f5472616e736665724661696c65643a205472616e7366657220746f206d756c7460448201526a1a5cda59c819985a5b195960aa1b6064820152608401610429565b6000846001600160a01b03168360405160006040518083038185875af1925050503d80600081146105bc576040519150601f19603f3d011682016040523d82523d6000602084013e6105c1565b606091505b50509050806106205760405162461bcd60e51b815260206004820152602560248201527f5472616e736665724661696c65643a204d61746963207472616e736665722066604482015264185a5b195960da1b6064820152608401610429565b846001600160a01b03166106326115cd565b6001600160a01b0316600080516020611ddd83398151915234874260405161066d939291909283526020830191909152604082015260600190565b60405180910390a3505050506106836001600055565b50565b60006106906115cd565b6001600160a01b031631905090565b6000805b6003548110156106ff57826001600160a01b0316600382815481106106ca576106ca611c51565b6000918252602090912001546001600160a01b0316036106ed5750600192915050565b6106f8600182611c67565b90506106a3565b50600092915050565b6006546000906001600160a01b031661071f6115cd565b6001600160a01b0316146107455760405162461bcd60e51b815260040161042990611c7a565b506004546001600160a01b03163190565b6002546000906001600160a01b03166370a082316107726115cd565b6040516001600160e01b031960e084901b1681526001600160a01b0390911660048201526024015b602060405180830381865afa1580156107b7573d6000803e3d6000fd5b505050506040513d601f19601f820116820180604052508101906107db9190611ca9565b905090565b6006546001600160a01b03166107f46115cd565b6001600160a01b03161461081a5760405162461bcd60e51b815260040161042990611c7a565b600480546001600160a01b0319166001600160a01b0383169081179091556040514281527f5057611f2423107d7c2f4f48ba649160ae09fba8d3d68591264db4a44c026915906020015b60405180910390a250565b6000610879611496565b6000821161089d57604051633728b83d60e01b815260048101839052602401610429565b60006103e8600154846108b09190611bbc565b6108ba9190611bd3565b905060006108c88285611c67565b60025490915081906001600160a01b03166370a082316108e66115cd565b6040516001600160e01b031960e084901b1681526001600160a01b039091166004820152602401602060405180830381865afa15801561092a573d6000803e3d6000fd5b505050506040513d601f19601f8201168201806040525081019061094e9190611ca9565b10156109935760405162461bcd60e51b8152602060048201526014602482015273496e73756666696369656e742062616c616e636560601b6044820152606401610429565b60025460405163095ea7b360e01b8152306004820152602481018390526001600160a01b039091169063095ea7b3906044016020604051808303816000875af11580156109e4573d6000803e3d6000fd5b505050506040513d601f19601f82011682018060405250810190610a089190611cc2565b506002546001600160a01b03166323b872dd610a226115cd565b6040516001600160e01b031960e084901b1681526001600160a01b0391821660048201529088166024820152604481018490526064016020604051808303816000875af1158015610a77573d6000803e3d6000fd5b505050506040513d601f19601f82011682018060405250810190610a9b9190611cc2565b50846001600160a01b0316610aae6115cd565b6001600160a01b0316600080516020611ddd833981519152838542604051610ae9939291909283526020830191909152604082015260600190565b60405180910390a3600192505050610b016001600055565b92915050565b610b10336114ef565b610b2c5760405162461bcd60e51b815260040161042990611b27565b610683816115ee565b60038181548110610b4557600080fd5b6000918252602090912001546001600160a01b0316905081565b610b67611496565b60003411610b875760405162461bcd60e51b815260040161042990611b57565b34610b906115cd565b6001600160a01b0316311015610bb85760405162461bcd60e51b815260040161042990611c08565b6000816001600160a01b03163460405160006040518083038185875af1925050503d8060008114610c05576040519150601f19603f3d011682016040523d82523d6000602084013e610c0a565b606091505b5050905080610c7a5760405162461bcd60e51b815260206004820152603660248201527f5472616e736665724661696c65643a204d61746963207472616e7366657220746044820152751bc81cdb585c9d081858d8dbdd5b9d0819985a5b195960521b6064820152608401610429565b816001600160a01b0316610c8c6115cd565b6001600160a01b0316600080516020611ddd833981519152343442604051610cc7939291909283526020830191909152604082015260600190565b60405180910390a3506106836001600055565b6006546001600160a01b0316610cee6115cd565b6001600160a01b031614610d145760405162461bcd60e51b815260040161042990611c7a565b60005b600354811015610e1b57816001600160a01b031660038281548110610d3e57610d3e611c51565b6000918252602090912001546001600160a01b031603610e095760038054610d6890600190611bf5565b81548110610d7857610d78611c51565b600091825260209091200154600380546001600160a01b039092169183908110610da457610da4611c51565b9060005260206000200160006101000a8154816001600160a01b0302191690836001600160a01b031602179055506003805480610de357610de3611ce4565b600082815260209020810160001990810180546001600160a01b03191690550190555050565b610e14600182611c67565b9050610d17565b5050565b6006546001600160a01b0316610e336115cd565b6001600160a01b031614610e595760405162461bcd60e51b815260040161042990611c7a565b6064811115610ea35760405162461bcd60e51b8152602060048201526016602482015275496e76616c6964206665652070657263656e7461676560501b6044820152606401610429565b6001819055604080518281524260208201527f61312852de43725e4264e8d956247989130cee42a6a07bb5475ed12335609c7b910160405180910390a150565b6000808290506000816001600160a01b031663feaf968c6040518163ffffffff1660e01b815260040160a060405180830381865afa158015610f29573d6000803e3d6000fd5b505050506040513d601f19601f82011682018060405250810190610f4d9190611d19565b5091979650505050505050565b600254600480546040516370a0823160e01b81526001600160a01b039182169281019290925260009216906370a082319060240161079a565b6006546000906001600160a01b0316610faa6115cd565b6001600160a01b031614610fd05760405162461bcd60e51b815260040161042990611c7a565b6002546040516370a0823160e01b81523060048201526001600160a01b03909116906370a082319060240161079a565b6006546000906001600160a01b03166110176115cd565b6001600160a01b03161461103d5760405162461bcd60e51b815260040161042990611c7a565b504790565b6006546001600160a01b03166110566115cd565b6001600160a01b03161461107c5760405162461bcd60e51b815260040161042990611c7a565b600380546001810182556000919091527fc2575a0e9e593c00f959f8c92f12db2869c3395a3b0502d05e2516446f71f85b0180546001600160a01b0319166001600160a01b0392909216919091179055565b60006110d8611496565b6110e1336114ef565b6110fd5760405162461bcd60e51b815260040161042990611b27565b6000821161112157604051633728b83d60e01b815260048101839052602401610429565b60006103e8600154846111349190611bbc565b61113e9190611bd3565b9050600061114c8285611c67565b905061115661159f565b60025481906001600160a01b03166370a082316111716115cd565b6040516001600160e01b031960e084901b1681526001600160a01b039091166004820152602401602060405180830381865afa1580156111b5573d6000803e3d6000fd5b505050506040513d601f19601f820116820180604052508101906111d99190611ca9565b101561121e5760405162461bcd60e51b8152602060048201526014602482015273496e73756666696369656e742062616c616e636560601b6044820152606401610429565b60025460405163095ea7b360e01b8152306004820152602481018390526001600160a01b039091169063095ea7b3906044016020604051808303816000875af115801561126f573d6000803e3d6000fd5b505050506040513d601f19601f820116820180604052508101906112939190611cc2565b506002546001600160a01b03166323b872dd6112ad6115cd565b6040516001600160e01b031960e084901b1681526001600160a01b0391821660048201529088166024820152604481018790526064016020604051808303816000875af1158015611302573d6000803e3d6000fd5b505050506040513d601f19601f820116820180604052508101906113269190611cc2565b506002546001600160a01b03166323b872dd6113406115cd565b6004805460405160e085901b6001600160e01b03191681526001600160a01b0393841692810192909252919091166024820152604481018590526064016020604051808303816000875af115801561139c573d6000803e3d6000fd5b505050506040513d601f19601f820116820180604052508101906113c09190611cc2565b50846001600160a01b03166113d36115cd565b6001600160a01b0316600080516020611ddd833981519152868542604051610ae9939291909283526020830191909152604082015260600190565b6006546001600160a01b03166114226115cd565b6001600160a01b0316146114485760405162461bcd60e51b815260040161042990611c7a565b600580546001600160a01b0319166001600160a01b0383169081179091556040514281527f96860c95ce4a7c4e261deac9eba30d8f81ef595dc1f2a2fd7dd21a3e1d9f5ef890602001610864565b6002600054036114e85760405162461bcd60e51b815260206004820152601f60248201527f5265656e7472616e637947756172643a207265656e7472616e742063616c6c006044820152606401610429565b6002600055565b6000466101441480611502575046610118145b15611553576001600160a01b0382167322dcc39b2ac376862183dd35a1664798dafc7da61480610b0157506001600160a01b03821673ba4082f4961c8fb76231995c967cd9aa40f321b51492915050565b6001600160a01b03821673b539068872230f20456cf38ec52ef2f91af4ae491480610b0157506001600160a01b038216738598806401a63ddf52473f1b3c55bc9e33e2d73b1492915050565b6115cb36605b19013560601c36603319013536604719013560601c5b6001600160a01b03169190611685565b565b60006115d8336114ef565b6115e157503390565b5060131936013560601c90565b6033193601358181111561166a5760405162461bcd60e51b815260206004820152603960248201527f47656c61746f52656c6179436f6e74657874455243323737312e5f7472616e7360448201527f66657252656c61794665654361707065643a206d6178466565000000000000006064820152608401610429565b610e1b36605b19013560601c8236604719013560601c6115bb565b8060000361169257505050565b6001600160a01b03831673eeeeeeeeeeeeeeeeeeeeeeeeeeeeeeeeeeeeeeee146116cf576116ca6001600160a01b03841683836116d9565b505050565b6116ca828261172b565b604080516001600160a01b038416602482015260448082018490528251808303909101815260649091019091526020810180516001600160e01b031663a9059cbb60e01b1790526116ca908490611844565b8047101561177b5760405162461bcd60e51b815260206004820152601d60248201527f416464726573733a20696e73756666696369656e742062616c616e63650000006044820152606401610429565b6000826001600160a01b03168260405160006040518083038185875af1925050503d80600081146117c8576040519150601f19603f3d011682016040523d82523d6000602084013e6117cd565b606091505b50509050806116ca5760405162461bcd60e51b815260206004820152603a60248201527f416464726573733a20756e61626c6520746f2073656e642076616c75652c207260448201527f6563697069656e74206d617920686176652072657665727465640000000000006064820152608401610429565b6000611899826040518060400160405280602081526020017f5361666545524332303a206c6f772d6c6576656c2063616c6c206661696c6564815250856001600160a01b03166119199092919063ffffffff16565b90508051600014806118ba5750808060200190518101906118ba9190611cc2565b6116ca5760405162461bcd60e51b815260206004820152602a60248201527f5361666545524332303a204552433230206f7065726174696f6e20646964206e6044820152691bdd081cdd58d8d9595960b21b6064820152608401610429565b60606119288484600085611930565b949350505050565b6060824710156119915760405162461bcd60e51b815260206004820152602660248201527f416464726573733a20696e73756666696369656e742062616c616e636520666f6044820152651c8818d85b1b60d21b6064820152608401610429565b600080866001600160a01b031685876040516119ad9190611d8d565b60006040518083038185875af1925050503d80600081146119ea576040519150601f19603f3d011682016040523d82523d6000602084013e6119ef565b606091505b5091509150611a0087838387611a0b565b979650505050505050565b60608315611a7a578251600003611a73576001600160a01b0385163b611a735760405162461bcd60e51b815260206004820152601d60248201527f416464726573733a2063616c6c20746f206e6f6e2d636f6e74726163740000006044820152606401610429565b5081611928565b6119288383815115611a8f5781518083602001fd5b8060405162461bcd60e51b81526004016104299190611da9565b6001600160a01b038116811461068357600080fd5b600060208284031215611ad057600080fd5b8135611adb81611aa9565b9392505050565b60008060408385031215611af557600080fd5b8235611b0081611aa9565b946020939093013593505050565b600060208284031215611b2057600080fd5b5035919050565b6020808252601690820152756f6e6c7947656c61746f52656c61794552433237373160501b604082015260600190565b6020808252602f908201527f496e76616c6964416d6f756e743a20416d6f756e74206d75737420626520677260408201526e6561746572207468616e207a65726f60881b606082015260800190565b634e487b7160e01b600052601160045260246000fd5b8082028115828204841417610b0157610b01611ba6565b600082611bf057634e487b7160e01b600052601260045260246000fd5b500490565b81810381811115610b0157610b01611ba6565b60208082526029908201527f496e73756666696369656e7442616c616e63653a20496e73756666696369656e604082015268742062616c616e636560b81b606082015260800190565b634e487b7160e01b600052603260045260246000fd5b80820180821115610b0157610b01611ba6565b6020808252601590820152742cb7ba9030b932903737ba103a34329037bbb732b960591b604082015260600190565b600060208284031215611cbb57600080fd5b5051919050565b600060208284031215611cd457600080fd5b81518015158114611adb57600080fd5b634e487b7160e01b600052603160045260246000fd5b805169ffffffffffffffffffff81168114611d1457600080fd5b919050565b600080600080600060a08688031215611d3157600080fd5b611d3a86611cfa565b9450602086015193506040860151925060608601519150611d5d60808701611cfa565b90509295509295909350565b60005b83811015611d84578181015183820152602001611d6c565b50506000910152565b60008251611d9f818460208701611d69565b9190910192915050565b6020815260008251806020840152611dc8816040850160208701611d69565b601f01601f1916919091016040019291505056fec817d75deaa278e988c41cf549ef38fe195ab65e0e64cd67ba47f0d185690d58a264697066735822122033b1c3f053e4b1eece6114ac0d2f5b477e92e11164e2cced0ebccd5236d6b2de64736f6c63430008130033",
  "linkReferences": {},
  "deployedLinkReferences": {}
}